{
  "contractName": "SimpleTokenSwap",
  "abi": [
    {
      "inputs": [
        {
          "internalType": "contract IWETH",
          "name": "weth",
          "type": "address"
        }
      ],
      "stateMutability": "nonpayable",
      "type": "constructor"
    },
    {
      "anonymous": false,
      "inputs": [
        {
          "indexed": false,
          "internalType": "contract IERC20",
          "name": "sellToken",
          "type": "address"
        },
        {
          "indexed": false,
          "internalType": "contract IERC20",
          "name": "buyToken",
          "type": "address"
        },
        {
          "indexed": false,
          "internalType": "uint256",
          "name": "soldAmount",
          "type": "uint256"
        },
        {
          "indexed": false,
          "internalType": "uint256",
          "name": "boughtAmount",
          "type": "uint256"
        }
      ],
      "name": "SwappedTokens",
      "type": "event"
    },
    {
      "inputs": [],
      "name": "WETH",
      "outputs": [
        {
          "internalType": "contract IWETH",
          "name": "",
          "type": "address"
        }
      ],
      "stateMutability": "view",
      "type": "function",
      "constant": true
    },
    {
      "inputs": [],
      "name": "owner",
      "outputs": [
        {
          "internalType": "address",
          "name": "",
          "type": "address"
        }
      ],
      "stateMutability": "view",
      "type": "function",
      "constant": true
    },
    {
      "stateMutability": "payable",
      "type": "receive",
      "payable": true
    },
    {
      "inputs": [
        {
          "internalType": "contract IERC20",
          "name": "token",
          "type": "address"
        },
        {
          "internalType": "uint256",
          "name": "amount",
          "type": "uint256"
        }
      ],
      "name": "withdrawToken",
      "outputs": [],
      "stateMutability": "nonpayable",
      "type": "function"
    },
    {
      "inputs": [
        {
          "internalType": "uint256",
          "name": "amount",
          "type": "uint256"
        }
      ],
      "name": "withdrawETH",
      "outputs": [],
      "stateMutability": "nonpayable",
      "type": "function"
    },
    {
      "inputs": [
        {
          "internalType": "contract IERC20",
          "name": "token",
          "type": "address"
        },
        {
          "internalType": "uint256",
          "name": "amount",
          "type": "uint256"
        }
      ],
      "name": "depositToken",
      "outputs": [],
      "stateMutability": "nonpayable",
      "type": "function"
    },
    {
      "inputs": [],
      "name": "depositETH",
      "outputs": [],
      "stateMutability": "payable",
      "type": "function",
      "payable": true
    },
    {
      "inputs": [
        {
          "internalType": "contract IERC20",
          "name": "sellToken",
          "type": "address"
        },
        {
          "internalType": "contract IERC20",
          "name": "buyToken",
          "type": "address"
        },
        {
          "internalType": "address",
          "name": "spender",
          "type": "address"
        },
        {
          "internalType": "address payable",
          "name": "swapTarget",
          "type": "address"
        },
        {
          "internalType": "bytes",
          "name": "swapCallData",
          "type": "bytes"
        }
      ],
      "name": "fillQuote",
      "outputs": [],
      "stateMutability": "payable",
      "type": "function",
      "payable": true
    },
    {
      "inputs": [
        {
          "internalType": "contract IERC20",
          "name": "sellToken",
          "type": "address"
        },
        {
          "internalType": "contract IERC20",
          "name": "buyToken",
          "type": "address"
        },
        {
          "internalType": "address",
          "name": "spender",
          "type": "address"
        },
        {
          "internalType": "address payable",
          "name": "swapTarget",
          "type": "address"
        },
        {
          "internalType": "bytes",
          "name": "swapCallData",
          "type": "bytes"
        }
      ],
      "name": "fillMerchantQuote",
      "outputs": [],
      "stateMutability": "payable",
      "type": "function",
      "payable": true
    }
  ],
  "bytecode": "0x60a060405234801561001057600080fd5b506040516112c23803806112c28339818101604052602081101561003357600080fd5b81019080805190602001909291905050508073ffffffffffffffffffffffffffffffffffffffff1660808173ffffffffffffffffffffffffffffffffffffffff1660601b81525050336000806101000a81548173ffffffffffffffffffffffffffffffffffffffff021916908373ffffffffffffffffffffffffffffffffffffffff1602179055505060805160601c6111e46100de600039806110bf528061112d52506111e46000f3fe60806040526004361061007f5760003560e01c8063ab9716121161004e578063ab9716121461027b578063ad5c464814610374578063f14210a6146103b5578063f6326fb3146103f057610086565b8063338b5dea1461008b5780636e1195fb146100e65780638da5cb5b146101df5780639e281a981461022057610086565b3661008657005b600080fd5b34801561009757600080fd5b506100e4600480360360408110156100ae57600080fd5b81019080803573ffffffffffffffffffffffffffffffffffffffff169060200190929190803590602001909291905050506103fa565b005b6101dd600480360360a08110156100fc57600080fd5b81019080803573ffffffffffffffffffffffffffffffffffffffff169060200190929190803573ffffffffffffffffffffffffffffffffffffffff169060200190929190803573ffffffffffffffffffffffffffffffffffffffff169060200190929190803573ffffffffffffffffffffffffffffffffffffffff1690602001909291908035906020019064010000000081111561019957600080fd5b8201836020820111156101ab57600080fd5b803590602001918460018302840111640100000000831117156101cd57600080fd5b90919293919293905050506104d1565b005b3480156101eb57600080fd5b506101f4610abc565b604051808273ffffffffffffffffffffffffffffffffffffffff16815260200191505060405180910390f35b34801561022c57600080fd5b506102796004803603604081101561024357600080fd5b81019080803573ffffffffffffffffffffffffffffffffffffffff16906020019092919080359060200190929190505050610ae0565b005b610372600480360360a081101561029157600080fd5b81019080803573ffffffffffffffffffffffffffffffffffffffff169060200190929190803573ffffffffffffffffffffffffffffffffffffffff169060200190929190803573ffffffffffffffffffffffffffffffffffffffff169060200190929190803573ffffffffffffffffffffffffffffffffffffffff1690602001909291908035906020019064010000000081111561032e57600080fd5b82018360208201111561034057600080fd5b8035906020019184600183028401116401000000008311171561036257600080fd5b9091929391929390505050610b99565b005b34801561038057600080fd5b506103896110bd565b604051808273ffffffffffffffffffffffffffffffffffffffff16815260200191505060405180910390f35b3480156103c157600080fd5b506103ee600480360360208110156103d857600080fd5b81019080803590602001909291905050506110e1565b005b6103f861112b565b005b8173ffffffffffffffffffffffffffffffffffffffff166323b872dd3330846040518463ffffffff1660e01b8152600401808473ffffffffffffffffffffffffffffffffffffffff1681526020018373ffffffffffffffffffffffffffffffffffffffff1681526020018281526020019350505050602060405180830381600087803b15801561048957600080fd5b505af115801561049d573d6000803e3d6000fd5b505050506040513d60208110156104b357600080fd5b81019080805190602001909291905050506104cd57600080fd5b5050565b60008573ffffffffffffffffffffffffffffffffffffffff166370a08231306040518263ffffffff1660e01b8152600401808273ffffffffffffffffffffffffffffffffffffffff16815260200191505060206040518083038186803b15801561053a57600080fd5b505afa15801561054e573d6000803e3d6000fd5b505050506040513d602081101561056457600080fd5b8101908080519060200190929190505050905060008773ffffffffffffffffffffffffffffffffffffffff166370a08231306040518263ffffffff1660e01b8152600401808273ffffffffffffffffffffffffffffffffffffffff16815260200191505060206040518083038186803b1580156105e057600080fd5b505afa1580156105f4573d6000803e3d6000fd5b505050506040513d602081101561060a57600080fd5b81019080805190602001909291905050509050600073e083437a8fd52a9a4b6b3cabec0279db5dad804390508873ffffffffffffffffffffffffffffffffffffffff1663095ea7b3887fffffffffffffffffffffffffffffffffffffffffffffffffffffffffffffffff6040518363ffffffff1660e01b8152600401808373ffffffffffffffffffffffffffffffffffffffff16815260200182815260200192505050602060405180830381600087803b1580156106c757600080fd5b505af11580156106db573d6000803e3d6000fd5b505050506040513d60208110156106f157600080fd5b810190808051906020019092919050505061070b57600080fd5b60008673ffffffffffffffffffffffffffffffffffffffff1634878760405180838380828437808301925050509250505060006040518083038185875af1925050503d8060008114610779576040519150601f19603f3d011682016040523d82523d6000602084013e61077e565b606091505b50509050806107f5576040517f08c379a00000000000000000000000000000000000000000000000000000000081526004018080602001828103825260108152602001807f535741505f43414c4c5f4641494c45440000000000000000000000000000000081525060200191505060405180910390fd5b3373ffffffffffffffffffffffffffffffffffffffff166108fc479081150290604051600060405180830381858888f1935050505015801561083b573d6000803e3d6000fd5b50838973ffffffffffffffffffffffffffffffffffffffff166370a08231306040518263ffffffff1660e01b8152600401808273ffffffffffffffffffffffffffffffffffffffff16815260200191505060206040518083038186803b1580156108a457600080fd5b505afa1580156108b8573d6000803e3d6000fd5b505050506040513d60208110156108ce57600080fd5b81019080805190602001909291905050500393508973ffffffffffffffffffffffffffffffffffffffff166370a08231306040518263ffffffff1660e01b8152600401808273ffffffffffffffffffffffffffffffffffffffff16815260200191505060206040518083038186803b15801561094957600080fd5b505afa15801561095d573d6000803e3d6000fd5b505050506040513d602081101561097357600080fd5b8101908080519060200190929190505050830392508873ffffffffffffffffffffffffffffffffffffffff1663a9059cbb83866040518363ffffffff1660e01b8152600401808373ffffffffffffffffffffffffffffffffffffffff16815260200182815260200192505050602060405180830381600087803b1580156109f957600080fd5b505af1158015610a0d573d6000803e3d6000fd5b505050506040513d6020811015610a2357600080fd5b8101908080519060200190929190505050507f43a6165165685ef04ce68fd0b620a88554df7464167d1fd61ff8b3802a4146f58a8a8587604051808573ffffffffffffffffffffffffffffffffffffffff1681526020018473ffffffffffffffffffffffffffffffffffffffff16815260200183815260200182815260200194505050505060405180910390a150505050505050505050565b60008054906101000a900473ffffffffffffffffffffffffffffffffffffffff1681565b8173ffffffffffffffffffffffffffffffffffffffff1663a9059cbb33836040518363ffffffff1660e01b8152600401808373ffffffffffffffffffffffffffffffffffffffff16815260200182815260200192505050602060405180830381600087803b158015610b5157600080fd5b505af1158015610b65573d6000803e3d6000fd5b505050506040513d6020811015610b7b57600080fd5b8101908080519060200190929190505050610b9557600080fd5b5050565b60008573ffffffffffffffffffffffffffffffffffffffff166370a08231306040518263ffffffff1660e01b8152600401808273ffffffffffffffffffffffffffffffffffffffff16815260200191505060206040518083038186803b158015610c0257600080fd5b505afa158015610c16573d6000803e3d6000fd5b505050506040513d6020811015610c2c57600080fd5b8101908080519060200190929190505050905060008773ffffffffffffffffffffffffffffffffffffffff166370a08231306040518263ffffffff1660e01b8152600401808273ffffffffffffffffffffffffffffffffffffffff16815260200191505060206040518083038186803b158015610ca857600080fd5b505afa158015610cbc573d6000803e3d6000fd5b505050506040513d6020811015610cd257600080fd5b810190808051906020019092919050505090508773ffffffffffffffffffffffffffffffffffffffff1663095ea7b3877fffffffffffffffffffffffffffffffffffffffffffffffffffffffffffffffff6040518363ffffffff1660e01b8152600401808373ffffffffffffffffffffffffffffffffffffffff16815260200182815260200192505050602060405180830381600087803b158015610d7657600080fd5b505af1158015610d8a573d6000803e3d6000fd5b505050506040513d6020811015610da057600080fd5b8101908080519060200190929190505050610dba57600080fd5b60008573ffffffffffffffffffffffffffffffffffffffff1634868660405180838380828437808301925050509250505060006040518083038185875af1925050503d8060008114610e28576040519150601f19603f3d011682016040523d82523d6000602084013e610e2d565b606091505b5050905080610ea4576040517f08c379a00000000000000000000000000000000000000000000000000000000081526004018080602001828103825260108152602001807f535741505f43414c4c5f4641494c45440000000000000000000000000000000081525060200191505060405180910390fd5b3373ffffffffffffffffffffffffffffffffffffffff166108fc479081150290604051600060405180830381858888f19350505050158015610eea573d6000803e3d6000fd5b50828873ffffffffffffffffffffffffffffffffffffffff166370a08231306040518263ffffffff1660e01b8152600401808273ffffffffffffffffffffffffffffffffffffffff16815260200191505060206040518083038186803b158015610f5357600080fd5b505afa158015610f67573d6000803e3d6000fd5b505050506040513d6020811015610f7d57600080fd5b81019080805190602001909291905050500392508873ffffffffffffffffffffffffffffffffffffffff166370a08231306040518263ffffffff1660e01b8152600401808273ffffffffffffffffffffffffffffffffffffffff16815260200191505060206040518083038186803b158015610ff857600080fd5b505afa15801561100c573d6000803e3d6000fd5b505050506040513d602081101561102257600080fd5b8101908080519060200190929190505050820391507f43a6165165685ef04ce68fd0b620a88554df7464167d1fd61ff8b3802a4146f589898486604051808573ffffffffffffffffffffffffffffffffffffffff1681526020018473ffffffffffffffffffffffffffffffffffffffff16815260200183815260200182815260200194505050505060405180910390a1505050505050505050565b7f000000000000000000000000000000000000000000000000000000000000000081565b3373ffffffffffffffffffffffffffffffffffffffff166108fc829081150290604051600060405180830381858888f19350505050158015611127573d6000803e3d6000fd5b5050565b7f000000000000000000000000000000000000000000000000000000000000000073ffffffffffffffffffffffffffffffffffffffff1663d0e30db0346040518263ffffffff1660e01b81526004016000604051808303818588803b15801561119357600080fd5b505af11580156111a7573d6000803e3d6000fd5b505050505056fea2646970667358221220621cd8ecb9da655cb1b440241723cebc87467794651741ed0ea5d821a01f44ba64736f6c63430007030033",
  "immutableReferences": {
    "89": [
      {
        "length": 32,
        "start": 4287
      },
      {
        "length": 32,
        "start": 4397
      }
    ]
  },
  "source": "// SPDX-License-Identifier: MIT\npragma solidity ^0.7.3;\n\n// A partial ERC20 interface.\ninterface IERC20 {\n    function balanceOf(address owner) external view returns (uint256);\n    function approve(address spender, uint256 amount) external returns (bool);\n    function transfer(address to, uint256 amount) external returns (bool);\n    function transferFrom(address from, address to, uint value) external returns (bool);\n}\n\n// A partial WETH interface.\ninterface IWETH is IERC20 {\n    function deposit() external payable;\n}\n\n// Demo contract that swaps its ERC20 balance for another ERC20.\n// NOT to be used in production.\ncontract SimpleTokenSwap {\n\n    event SwappedTokens(IERC20 sellToken, IERC20 buyToken, uint256 soldAmount, uint256 boughtAmount);\n\n    // The WETH contract.\n    IWETH public immutable WETH;\n    // Creator of this contract.\n    address public owner;\n\n    constructor(IWETH weth) {\n        WETH = weth;\n        owner = msg.sender;\n    }\n\n    modifier onlyOwner() {\n        require(msg.sender == owner, \"ONLY_OWNER\");\n        _;\n    }\n\n    // Payable fallback to allow this contract to receive protocol fee refunds.\n    receive() external payable {}\n\n    // Transfer tokens held by this contract to the sender/owner.\n    function withdrawToken(IERC20 token, uint256 amount)\n        external\n        // removing onlyOwner for demo purposes only!!!\n        // onlyOwner\n    {\n        require(token.transfer(msg.sender, amount));\n    }\n\n    // Transfer ETH held by this contrat to the sender/owner.\n    function withdrawETH(uint256 amount)\n        external\n        // removing onlyOwner for demo purposes only!!!\n        // onlyOwner\n    {\n        msg.sender.transfer(amount);\n    }\n\n    function depositToken(IERC20 token, uint256 amount)\n        external\n    {\n        require(token.transferFrom(msg.sender, address(this), amount));\n    }\n\n    // Transfer ETH into this contract and wrap it into WETH.\n    function depositETH()\n        external\n        payable\n    {\n        WETH.deposit{value: msg.value}();\n    }\n\n    // Swaps ERC20->ERC20 tokens held by this contract using a 0x-API quote.\n    function fillQuote(\n        // The `sellTokenAddress` field from the API response.\n        IERC20 sellToken,\n        // The `buyTokenAddress` field from the API response.\n        IERC20 buyToken,\n        // The `allowanceTarget` field from the API response.\n        address spender,\n        // The `to` field from the API response.\n        address payable swapTarget,\n        // The `data` field from the API response.\n        bytes calldata swapCallData\n    )\n        external\n        // removing onlyOwner for demo purposes only!!!\n        // onlyOwner\n        payable // Must attach ETH equal to the `value` field from the API response.\n    {\n        // Track our balance of the buyToken and sellToken to determine how much we've bought/sold.\n        uint256 boughtAmount = buyToken.balanceOf(address(this));\n        uint256 soldAmount = sellToken.balanceOf(address(this));\n\n        // Give `spender` an infinite allowance to spend this contract's `sellToken`.\n        // Note that for some tokens (e.g., USDT, KNC), you must first reset any existing\n        // allowance to 0 before being able to update it.\n        require(sellToken.approve(spender, uint256(-1)));\n        // Call the encoded swap function call on the contract at `swapTarget`,\n        // passing along any ETH attached to this function call to cover protocol fees.\n        (bool success,) = swapTarget.call{value: msg.value}(swapCallData);\n        require(success, 'SWAP_CALL_FAILED');\n        // Refund any unspent protocol fees to the sender.\n        msg.sender.transfer(address(this).balance);\n\n        // Use our current buyToken balance to determine how much we've bought.\n        boughtAmount = buyToken.balanceOf(address(this)) - boughtAmount;\n        soldAmount = soldAmount - sellToken.balanceOf(address(this));\n        emit SwappedTokens(sellToken, buyToken, soldAmount, boughtAmount);\n    }\n\n    // Swaps ERC20->ERC20 tokens held by this contract using a 0x-API quote.\n    function fillMerchantQuote(\n        // The `sellTokenAddress` field from the API response.\n        IERC20 sellToken,\n        // The `buyTokenAddress` field from the API response.\n        IERC20 buyToken,\n        // The `allowanceTarget` field from the API response.\n        address spender,\n        // The `to` field from the API response.\n        address payable swapTarget,\n        // The `data` field from the API response.\n        bytes calldata swapCallData\n    )\n        external\n        // removing onlyOwner for demo purposes only!!!\n        // onlyOwner\n        payable // Must attach ETH equal to the `value` field from the API response.\n    {\n        // Track our balance of the buyToken and sellToken to determine how much we've bought/sold.\n        uint256 boughtAmount = buyToken.balanceOf(address(this));\n        uint256 soldAmount = sellToken.balanceOf(address(this));\n        address merchant = 0xe083437A8FD52A9A4B6B3CAbec0279Db5dAD8043;\n\n        // Give `spender` an infinite allowance to spend this contract's `sellToken`.\n        // Note that for some tokens (e.g., USDT, KNC), you must first reset any existing\n        // allowance to 0 before being able to update it.\n        require(sellToken.approve(spender, uint256(-1)));\n        // Call the encoded swap function call on the contract at `swapTarget`,\n        // passing along any ETH attached to this function call to cover protocol fees.\n        (bool success,) = swapTarget.call{value: msg.value}(swapCallData);\n        require(success, 'SWAP_CALL_FAILED');\n        // Refund any unspent protocol fees to the sender.\n        msg.sender.transfer(address(this).balance);\n\n        // Use our current buyToken balance to determine how much we've bought.\n        boughtAmount = buyToken.balanceOf(address(this)) - boughtAmount;\n        soldAmount = soldAmount - sellToken.balanceOf(address(this));\n\n        // Send converted tokens to merchant address\n        buyToken.transfer(merchant, boughtAmount);\n\n        emit SwappedTokens(sellToken, buyToken, soldAmount, boughtAmount);\n    }\n}\n",
  "sourcePath": "/Users/Jack/Developer/0xintegration/contracts/SimpleTokenSwap.sol",
  "compiler": {
    "name": "solc",
    "version": "0.7.3+commit.9bfce1f6.Emscripten.clang"
  },
  "schemaVersion": "3.3.0",
  "updatedAt": "2020-10-22T21:54:48.772Z",
  "networkType": "ethereum",
  "devdoc": {
    "kind": "dev",
    "methods": {},
    "version": 1
  },
  "userdoc": {
    "kind": "user",
    "methods": {},
    "version": 1
  }
}